:020000040800F2
:1000000000500020490F00082F02000831020008AC
:100010003302000835020008370200080000000023
:10002000000000000000000000000000390200088D
:100030003B020008000000003D0200083F020008EB
:10004000910F0008910F0008910F0008910F000810
:10005000910F0008910F0008910F0008910F000800
:10006000910F0008910F0008910F0008910F0008F0
:10007000910F0008910F0008910F0008910F0008E0
:10008000910F0008910F0008910F0008910F0008D0
:10009000910F0008910F0008910F0008910F0008C0
:1000A000910F0008910F0008910F0008910F0008B0
:1000B000910F0008910F0008910F0008910F0008A0
:1000C000910F0008910F0008910F0008910F000890
:1000D000910F0008910F0008910F0008910F000880
:1000E000910F0008910F0008910F00080000000018
:1000F0000000000000000000000000000000000000
:0C01000000000000000000005FF808F1A3
:10010C0010B5054C237833B9044B13B10448AFF345
:10011C0000800123237010BD0400002000000000AB
:10012C00DC0F000808B5034B1BB103490348AFF3C0
:10013C00008008BD0000000008000020DC0F000853
:10014C00074AD36823F4E0631B041B0C000200F481
:10015C00E060184340F0BF6040F40030D06070475E
:10016C0000ED00E030B4174BDB68C3F30223C3F19E
:10017C000704042C28BF04241D1D062D18D9033B8D
:10018C004FF0FF3505FA04F421EA0401994005FA11
:10019C0003F322EA0303194300280BDB0901C9B25C
:1001AC0000F1604000F5614080F8001330BC7047EE
:1001BC000023E5E700F00F000901C9B2024B195406
:1001CC00F4E700BF00ED00E014ED00E00138B0F101
:1001DC00807F0AD2064B5860064AF02182F8231021
:1001EC000020986007221A6070470120704700BFFA
:1001FC0010E000E000ED00E0042805D0054A13688B
:10020C0023F0040313607047024A136843F004039D
:10021C001360704710E000E0704708B5FFF7FCFF73
:10022C0008BD7047FEE7FEE7FEE7FEE77047704744
:10023C00704708B500F052F8FFF7EFFF08BD00005B
:10024C000F4B1A6842F001021A6059680D4A0A40B5
:10025C005A601A6822F0847222F480321A601A688A
:10026C0022F480221A605A6822F4FE025A604FF47B
:10027C001F029A60044B4FF000629A60704700BFF7
:10028C00001002400000FFF800ED00E010B504463D
:10029C00074B1868074BA3FB00308009FFF796FF4C
:1002AC00002221464FF0FF30FFF75CFF002010BD0D
:1002BC0000000020D34D621008B5074A136843F0C4
:1002CC00100313600320FFF73BFF0020FFF7DEFF56
:1002DC0000F0BCFD002008BD00200240024A13685B
:1002EC0001331360704700BF20000020014B1868D9
:1002FC00704700BF20000020F0B482B000263546C5
:10030C00A1E0002C59D0012C00D1CE68FF2B68D86D
:10031C008446FF2B68D8AC00DCF800200F27A740E0
:10032C0022EA070206FA04F42243CCF800204A68B9
:10033C0012F0805F00F086805E4A946944F00104FC
:10034C009461926902F001020192019AAC08A71C17
:10035C00594A52F8272005F00307BF004FF00F0C45
:10036C000CFA07FC22EA0C0C544A904242D002F5DB
:10037C00806290427FD002F5806290427DD002F57F
:10038C008062904234D0042235E04D4FBC4214D0F0
:10039C000BD94C4FBC4210D007F58037BC420CD067
:1003AC00A7F58017BC42B1D107E0A7F58017BC4276
:1003BC0003D007F58037BC42A8D18C687CB1012CE6
:1003CC0008D042610826A1E7CE6808369EE7CE68C1
:1003DC000C369BE70261082698E7002696E7042670
:1003EC0094E700F1040C94E7A5F10804A40093E74A
:1003FC00032200E00022BA4042EA0C0202342E4FE3
:10040C0047F824204A6812F4803F38D02E4C2268DA
:10041C001A4322604A6812F4003F36D02A4C6268B4
:10042C001A4362604A6812F4801F34D0264CA268CA
:10043C001A43A2604A6812F4001F32D0224CE268C0
:10044C001343E36001350F2D31D80122AA400B680C
:10045C0013409A42F6D14C68122CB8D095D8022C85
:10046C00B2D07FF64EAF032CB7D0112C7FF44EAF29
:10047C00CE6804364AE70122BDE70222BBE7124CE4
:10048C00226822EA03022260C4E70F4C626822EA67
:10049C0003026260C6E70C4CA26822EA0302A26067
:1004AC00C8E7094CE26822EA0303E360CAE702B03A
:1004BC00F0BC7047001002400000014000080140F1
:1004CC0000002110000031100004014012B9090491
:1004DC00016170470161704710B586B0114B9A6984
:1004EC0042F020029A619A6902F020020092009A6E
:1004FC009A6942F004029A619B6903F00403019328
:10050C00019B094C002201212046FFF7DFFF01234C
:10051C00029303930223059302A92046FFF7ECFEF6
:10052C0006B010BD0010024000080140FEE70000BC
:10053C0008B50B480B4B03604FF4E13343600023C9
:10054C008360C36003610C2242618361C36100F06C
:10055C002FF900B908BDAE210348FFF7E7FF00BF34
:10056C0024000020003801402010000800B591B094
:10057C00012206924FF480330793002108910A92CE
:10058C0002220D920E934FF4E0130F9306A800F085
:10059C0055F908BB0F230193022102910023039309
:1005AC004FF480620492059301A800F06DFBB8B97A
:1005BC0000F026FC0C4BA3FB00308009FFF706FE75
:1005CC000420FFF719FE002211464FF0FF30FFF711
:1005DC00C9FD11B05DF804FB83210448FFF7A6FFA9
:1005EC0091210248FFF7A2FFD34D621020100008A2
:1005FC0008B5FFF761FEFFF7B9FFFFF76DFFFFF7D7
:10060C0097FFFEE72DE9F84305460268136923F4CA
:10061C004053C1680B4313618368026913434269F9
:10062C0013430168CA6822F4B05222F00C0213433F
:10063C00CB600268536923F4407381690B435361A7
:10064C000268594B9A4257D000F0E0FB00EB800057
:10065C0000EB80006C68A400B0FBF4F4534FA7FBD4
:10066C0004346409260100F0D1FB00EB800000EBA0
:10067C0080006C68A400B0FBF4F900F0C7FB00EB41
:10068C00800000EB80006C68A400B0FBF4F4A7FBC6
:10069C00043464094FF0640808FB149424013234C8
:1006AC00A7FB0434640904F0F004344400F0AEFBFE
:1006BC0000EB800000EB80006E68B600B0FBF6F635
:1006CC0000F0A4FB00EB800000EB80006B689B004B
:1006DC00B0FBF3F0A7FB0030400908FB10684FEAB1
:1006EC00081808F13208A7FB0837C7F343172B6823
:1006FC0027449F60BDE8F88300F098FB00EB800076
:10070C0000EB80006C68A400B0FBF4F4274FA7FB4F
:10071C0004346409260100F089FB00EB800000EB37
:10072C0080006C68A400B0FBF4F900F07FFB00EBD8
:10073C00800000EB80006C68A400B0FBF4F4A7FB15
:10074C00043464094FF0640808FB14942401323417
:10075C00A7FB0434640904F0F004344400F066FB95
:10076C0000EB800000EB80006E68B600B0FBF6F684
:10077C0000F05CFB00EB800000EB80006B689B00E2
:10078C00B0FBF3F0A7FB0030400908FB10684FEA00
:10079C00081808F13208A7FB0837C7F343172B6872
:1007AC0027449F60A6E700BF003801401F85EB512E
:1007BC0058B310B5044690F839300BB3242384F8A1
:1007CC0039302268D36823F40053D3602046FFF7F6
:1007DC0019FF2268136923F490431361226853694B
:1007EC0023F02A0353612268D36843F40053D36087
:1007FC000020E063202384F8393084F83A3010BDAF
:10080C0080F8383000F06CFBD8E70120704700000E
:10081C0082B0084B1B68084AA2FB03235B0A00FB4F
:10082C0003F0019000BF019B5A1E0192002BF9D1DD
:10083C0002B0704700000020D34D621070B582B03A
:10084C000446036813F0010F2CD0AB4B5B6803F02C
:10085C000C03042B1DD0A84B5B6803F00C03082B76
:10086C0012D06368B3F5803F41D0002B55D103F112
:10087C00804303F504331A6822F480321A601A6834
:10088C0022F480221A6037E09B4B5B6813F4803FA4
:10089C00E7D0994B1B6813F4003F03D06368002B1F
:1008AC0000F0AE81236813F0020F76D0924B5B6898
:1008BC0013F00C0F5FD0904B5B6803F00C03082B0C
:1008CC0054D02369002B00F08A808C4B01221A60D3
:1008DC00FFF70CFD0546884B1B6813F0020F75D112
:1008EC00FFF704FD401B0228F5D903208BE1824A57
:1008FC00136843F480331360636843B3FFF7F6FC6B
:10090C0005467D4B1B6813F4003FCBD1FFF7EEFC83
:10091C00401B6428F5D9032075E1B3F5A02F09D04D
:10092C00754B1A6822F480321A601A6822F48022FD
:10093C001A60E1E703F18043A3F53C331A6842F4F3
:10094C0080221A601A6842F480321A60D4E7FFF7EA
:10095C00CDFC0546684B1B6813F4003FA2D0FFF793
:10096C00C5FC401B6428F5D903204CE1624B5B6845
:10097C0013F4803FA5D1604B1B6813F0020F04D019
:10098C002369012B01D001203DE15B4A136823F060
:10099C00F803616943EAC1031360236813F0080F7D
:1009AC0032D0A369002B5BD0554B01221A60FFF7A4
:1009BC009DFC0546504B5B6A13F0020F21D1FFF7EB
:1009CC0095FC401B0228F5D903201CE14A4A136808
:1009DC0023F0F803616943EAC1031360DDE7474B79
:1009EC0000221A60FFF782FC0546434B1B6813F08C
:1009FC00020FD2D0FFF77AFC401B0228F5D9032056
:100A0C0001E10120FFF704FF236813F0040F00F04D
:100A1C009780394BDB6913F0805F33D1364BDA6941
:100A2C0042F08052DA61DB6903F080530193019B41
:100A3C000125344B1B6813F4807F25D0E368012B10
:100A4C0036D0002B4CD103F1804303F504331A6AE2
:100A5C0022F001021A621A6A22F004021A622CE0D5
:100A6C00274B00221A60FFF741FC0546224B5B6ABC
:100A7C0013F0020FC8D0FFF739FC401B0228F5D940
:100A8C000320C0E00025D4E71E4A136843F48073AA
:100A9C001360FFF72BFC06461A4B1B6813F4807F80
:100AAC00CCD1FFF723FC801B6428F5D90320AAE0E6
:100ABC00114A136A43F001031362E36873B3FFF73F
:100ACC0015FC06460C4B1B6A13F0020F37D1FFF7CF
:100ADC000DFC801B41F288339842F3D9032092E03D
:100AEC00052B11D0044B1A6A22F001021A621A6A01
:100AFC0022F004021A62E0E70010024000004242B9
:100B0C008004424200700040414B1A6A42F00402D9
:100B1C001A621A6A42F001021A62CEE7FFF7E6FB8C
:100B2C0006463B4B1B6A13F0020F08D0FFF7DEFBA7
:100B3C00801B41F288339842F3D9032063E0E5B976
:100B4C00E369002B5ED0324A526802F00C02082A8C
:100B5C005BD0022B17D02F4B00221A60FFF7C6FB7D
:100B6C0004462B4B1B6813F0007F47D0FFF7BEFBEE
:100B7C00001B0228F5D9032045E0254AD36923F050
:100B8C008053D361DCE7234B00221A60FFF7AEFBE6
:100B9C0005461F4B1B6813F0007F06D0FFF7A6FB22
:100BAC00401B0228F5D903202DE0236AB3F5803FC2
:100BBC001AD017494B6823F47413226A606A0243F3
:100BCC0013434B60134B01221A60FFF78FFB044653
:100BDC000F4B1B6813F0007F0ED1FFF787FB001B38
:100BEC000228F5D903200EE0094A536823F4003398
:100BFC00A1680B435360DCE7002004E0002002E016
:100C0C00012000E0002002B070BD0120FBE700BF16
:100C1C00001002406000424210B487B0164C94E8B9
:100C2C000F000DF1180C0CE90F00238AADF80430FD
:100C3C00124B5B6803F00C02082A1AD1C3F38342EF
:100C4C00624412F8100C13F4803F05D10C4B03FBDB
:100C5C0000F007B010BC7047084B5B68C3F340430F
:100C6C00634413F8142C074BB3FBF2F300FB03F0B3
:100C7C00EFE70448EDE700BFF40F00080010024056
:100C8C0000093D0000127A00594B1B6803F0070362
:100C9C008B420CD2564A136823F007030B431360A4
:100CAC00136803F007038B4201D00120704770B525
:100CBC00036813F0020F06D04E4A536823F0F0037A
:100CCC008468234353600C460546036813F0010FF8
:100CDC0052D04368012B23D0022B28D0454A1268EE
:100CEC0012F0020F00F0828042494A6822F003029F
:100CFC0013434B60FFF7FAFA06466B68012B1DD0C5
:100D0C00022B2AD03B4B5B6813F00C0F34D0FFF74F
:100D1C00EDFA801B41F288339842F3D9032064E04A
:100D2C00344A126812F4003FDED101205DE0314AF2
:100D3C00126812F0007FD7D1012056E02D4B5B6872
:100D4C0003F00C03042B17D0FFF7D0FA801B41F2F1
:100D5C0088339842F2D9032047E0264B5B6803F0B6
:100D6C000C03082B08D0FFF7C1FA801B41F2883323
:100D7C009842F2D9032038E01D4B1B6803F007039F
:100D8C00A3420CD91A4A136823F0070323431360B8
:100D9C00136803F00703A34201D0012025E02B6860
:100DAC0013F0040F06D0134A536823F4E063E96888
:100DBC000B4353602B6813F0080F07D00D4A536890
:100DCC0023F46053296943EAC1035360FFF724FFFE
:100DDC00084B5B68C3F30313074AD35CD840074B3B
:100DEC0018600020FFF752FA002070BD0120FCE7CC
:100DFC0000200240001002400810000800000020F3
:100E0C00014B1868704700BF0000002008B5FFF7C1
:100E1C00F7FF044B5B68C3F30223034AD35CD8404F
:100E2C0008BD00BF001002401810000808B5FFF7FD
:100E3C00E7FF044B5B68C3F3C223034AD35CD8407F
:100E4C0008BD00BF001002401810000800B583B0A8
:100E5C00214B9A6942F001029A619B6903F00103EC
:100E6C000193019B0320FFF76BF9002211466FF0F1
:100E7C000B00FFF777F9002211466FF00A00FFF71D
:100E8C0071F9002211466FF00900FFF76BF900228F
:100E9C0011466FF00400FFF765F9002211466FF060
:100EAC000300FFF75FF9002211466FF00100FFF716
:100EBC0059F9002211464FF0FF30FFF753F9074B59
:100ECC005A6822F0E0625A605A6842F080625A60B6
:100EDC0003B05DF804FB00BF0010024000000140AD
:100EEC000268144B9A4200D0704710B586B003F5D7
:100EFC0058439A6942F480429A619B6903F4804397
:100F0C000193019B4FF40073029302230393032379
:100F1C000593094C02A92046FFF7EEF94FF48063C4
:100F2C00029300230393049302A92046FFF7E4F9EC
:100F3C0006B010BD0038014000080140002103E05C
:100F4C000B4B5B58435004310A480B4B42189A42E6
:100F5C00F6D30A4A02E0002342F8043B084B9A42BB
:100F6C00F9D3FFF76DF900F00FF8FFF741FB70476D
:100F7C0034100008000000200400002004000020B1
:100F8C0064000020FEE7000070B500250C4E0D4CEF
:100F9C00A41BA410A54209D100F01AF800250A4E92
:100FAC000A4CA41BA410A54205D170BD56F82530DF
:100FBC0098470135EEE756F8253098470135F2E7AA
:100FCC002C1000082C1000082C1000083010000801
:100FDC00F8B500BFF8BC08BC9E467047F8B500BF1A
:080FEC00F8BC08BC9E467047EA
:100FF40002030405060708090A0B0C0D0E0F101056
:1010040001020000000000000000000001020304CF
:101014000607080900000000010203045372632F4D
:081024006D61696E2E6300008E
:04102C003101000886
:041030000D010008A6
:0410340000A24A04C8
:0400000508000F4997
:00000001FF
